{
  "_format": "hh-sol-artifact-1",
  "contractName": "MintNFT721",
  "sourceName": "server/contracts/Mint721.sol",
  "abi": [
    {
      "inputs": [
        {
          "internalType": "string",
          "name": "_name",
          "type": "string"
        },
        {
          "internalType": "string",
          "name": "_symbol",
          "type": "string"
        },
        {
          "internalType": "address",
          "name": "_owner",
          "type": "address"
        },
        {
          "internalType": "address",
          "name": "_collectionMinter",
          "type": "address"
        }
      ],
      "stateMutability": "nonpayable",
      "type": "constructor"
    },
    {
      "anonymous": false,
      "inputs": [
        {
          "indexed": true,
          "internalType": "address",
          "name": "owner",
          "type": "address"
        },
        {
          "indexed": true,
          "internalType": "address",
          "name": "approved",
          "type": "address"
        },
        {
          "indexed": true,
          "internalType": "uint256",
          "name": "tokenId",
          "type": "uint256"
        }
      ],
      "name": "Approval",
      "type": "event"
    },
    {
      "anonymous": false,
      "inputs": [
        {
          "indexed": true,
          "internalType": "address",
          "name": "owner",
          "type": "address"
        },
        {
          "indexed": true,
          "internalType": "address",
          "name": "operator",
          "type": "address"
        },
        {
          "indexed": false,
          "internalType": "bool",
          "name": "approved",
          "type": "bool"
        }
      ],
      "name": "ApprovalForAll",
      "type": "event"
    },
    {
      "anonymous": false,
      "inputs": [
        {
          "indexed": false,
          "internalType": "uint256",
          "name": "_fromTokenId",
          "type": "uint256"
        },
        {
          "indexed": false,
          "internalType": "uint256",
          "name": "_toTokenId",
          "type": "uint256"
        }
      ],
      "name": "BatchMetadataUpdate",
      "type": "event"
    },
    {
      "anonymous": false,
      "inputs": [
        {
          "indexed": false,
          "internalType": "uint256",
          "name": "_tokenId",
          "type": "uint256"
        }
      ],
      "name": "MetadataUpdate",
      "type": "event"
    },
    {
      "anonymous": false,
      "inputs": [
        {
          "indexed": true,
          "internalType": "address",
          "name": "previousOwner",
          "type": "address"
        },
        {
          "indexed": true,
          "internalType": "address",
          "name": "newOwner",
          "type": "address"
        }
      ],
      "name": "OwnershipTransferred",
      "type": "event"
    },
    {
      "anonymous": false,
      "inputs": [
        {
          "indexed": true,
          "internalType": "address",
          "name": "from",
          "type": "address"
        },
        {
          "indexed": true,
          "internalType": "address",
          "name": "to",
          "type": "address"
        },
        {
          "indexed": true,
          "internalType": "uint256",
          "name": "tokenId",
          "type": "uint256"
        }
      ],
      "name": "Transfer",
      "type": "event"
    },
    {
      "inputs": [
        {
          "internalType": "address",
          "name": "to",
          "type": "address"
        },
        {
          "internalType": "uint256",
          "name": "tokenId",
          "type": "uint256"
        }
      ],
      "name": "approve",
      "outputs": [],
      "stateMutability": "nonpayable",
      "type": "function"
    },
    {
      "inputs": [
        {
          "internalType": "address",
          "name": "owner",
          "type": "address"
        }
      ],
      "name": "balanceOf",
      "outputs": [
        {
          "internalType": "uint256",
          "name": "",
          "type": "uint256"
        }
      ],
      "stateMutability": "view",
      "type": "function"
    },
    {
      "inputs": [
        {
          "internalType": "uint256",
          "name": "tokenId",
          "type": "uint256"
        }
      ],
      "name": "burn",
      "outputs": [],
      "stateMutability": "nonpayable",
      "type": "function"
    },
    {
      "inputs": [],
      "name": "collectionMinter",
      "outputs": [
        {
          "internalType": "address",
          "name": "",
          "type": "address"
        }
      ],
      "stateMutability": "view",
      "type": "function"
    },
    {
      "inputs": [],
      "name": "collectionOwner",
      "outputs": [
        {
          "internalType": "address",
          "name": "",
          "type": "address"
        }
      ],
      "stateMutability": "view",
      "type": "function"
    },
    {
      "inputs": [
        {
          "internalType": "uint256",
          "name": "tokenId",
          "type": "uint256"
        }
      ],
      "name": "getApproved",
      "outputs": [
        {
          "internalType": "address",
          "name": "",
          "type": "address"
        }
      ],
      "stateMutability": "view",
      "type": "function"
    },
    {
      "inputs": [
        {
          "internalType": "address",
          "name": "owner",
          "type": "address"
        },
        {
          "internalType": "address",
          "name": "operator",
          "type": "address"
        }
      ],
      "name": "isApprovedForAll",
      "outputs": [
        {
          "internalType": "bool",
          "name": "",
          "type": "bool"
        }
      ],
      "stateMutability": "view",
      "type": "function"
    },
    {
      "inputs": [
        {
          "internalType": "address",
          "name": "to",
          "type": "address"
        },
        {
          "internalType": "string",
          "name": "_uri",
          "type": "string"
        }
      ],
      "name": "mint",
      "outputs": [
        {
          "internalType": "uint256",
          "name": "",
          "type": "uint256"
        }
      ],
      "stateMutability": "nonpayable",
      "type": "function"
    },
    {
      "inputs": [],
      "name": "name",
      "outputs": [
        {
          "internalType": "string",
          "name": "",
          "type": "string"
        }
      ],
      "stateMutability": "view",
      "type": "function"
    },
    {
      "inputs": [],
      "name": "owner",
      "outputs": [
        {
          "internalType": "address",
          "name": "",
          "type": "address"
        }
      ],
      "stateMutability": "view",
      "type": "function"
    },
    {
      "inputs": [
        {
          "internalType": "uint256",
          "name": "tokenId",
          "type": "uint256"
        }
      ],
      "name": "ownerOf",
      "outputs": [
        {
          "internalType": "address",
          "name": "",
          "type": "address"
        }
      ],
      "stateMutability": "view",
      "type": "function"
    },
    {
      "inputs": [],
      "name": "renounceOwnership",
      "outputs": [],
      "stateMutability": "nonpayable",
      "type": "function"
    },
    {
      "inputs": [
        {
          "internalType": "address",
          "name": "from",
          "type": "address"
        },
        {
          "internalType": "address",
          "name": "to",
          "type": "address"
        },
        {
          "internalType": "uint256",
          "name": "tokenId",
          "type": "uint256"
        }
      ],
      "name": "safeTransferFrom",
      "outputs": [],
      "stateMutability": "nonpayable",
      "type": "function"
    },
    {
      "inputs": [
        {
          "internalType": "address",
          "name": "from",
          "type": "address"
        },
        {
          "internalType": "address",
          "name": "to",
          "type": "address"
        },
        {
          "internalType": "uint256",
          "name": "tokenId",
          "type": "uint256"
        },
        {
          "internalType": "bytes",
          "name": "data",
          "type": "bytes"
        }
      ],
      "name": "safeTransferFrom",
      "outputs": [],
      "stateMutability": "nonpayable",
      "type": "function"
    },
    {
      "inputs": [
        {
          "internalType": "address",
          "name": "operator",
          "type": "address"
        },
        {
          "internalType": "bool",
          "name": "approved",
          "type": "bool"
        }
      ],
      "name": "setApprovalForAll",
      "outputs": [],
      "stateMutability": "nonpayable",
      "type": "function"
    },
    {
      "inputs": [
        {
          "internalType": "bytes4",
          "name": "interfaceId",
          "type": "bytes4"
        }
      ],
      "name": "supportsInterface",
      "outputs": [
        {
          "internalType": "bool",
          "name": "",
          "type": "bool"
        }
      ],
      "stateMutability": "view",
      "type": "function"
    },
    {
      "inputs": [],
      "name": "symbol",
      "outputs": [
        {
          "internalType": "string",
          "name": "",
          "type": "string"
        }
      ],
      "stateMutability": "view",
      "type": "function"
    },
    {
      "inputs": [
        {
          "internalType": "uint256",
          "name": "tokenId",
          "type": "uint256"
        }
      ],
      "name": "tokenURI",
      "outputs": [
        {
          "internalType": "string",
          "name": "",
          "type": "string"
        }
      ],
      "stateMutability": "view",
      "type": "function"
    },
    {
      "inputs": [
        {
          "internalType": "address",
          "name": "from",
          "type": "address"
        },
        {
          "internalType": "address",
          "name": "to",
          "type": "address"
        },
        {
          "internalType": "uint256",
          "name": "tokenId",
          "type": "uint256"
        }
      ],
      "name": "transferFrom",
      "outputs": [],
      "stateMutability": "nonpayable",
      "type": "function"
    },
    {
      "inputs": [
        {
          "internalType": "address",
          "name": "newOwner",
          "type": "address"
        }
      ],
      "name": "transferOwnership",
      "outputs": [],
      "stateMutability": "nonpayable",
      "type": "function"
    }
  ],
  "bytecode": "0x60806040523480156200001157600080fd5b506040516200376938038062003769833981810160405281019062000037919062000320565b8383816000908051906020019062000051929190620001e7565b5080600190805190602001906200006a929190620001e7565b5050506200008d620000816200011960201b60201c565b6200012160201b60201c565b81600860006101000a81548173ffffffffffffffffffffffffffffffffffffffff021916908373ffffffffffffffffffffffffffffffffffffffff16021790555080600960006101000a81548173ffffffffffffffffffffffffffffffffffffffff021916908373ffffffffffffffffffffffffffffffffffffffff160217905550505050506200057c565b600033905090565b6000600760009054906101000a900473ffffffffffffffffffffffffffffffffffffffff16905081600760006101000a81548173ffffffffffffffffffffffffffffffffffffffff021916908373ffffffffffffffffffffffffffffffffffffffff1602179055508173ffffffffffffffffffffffffffffffffffffffff168173ffffffffffffffffffffffffffffffffffffffff167f8be0079c531659141344cd1fd0a4f28419497f9722a3daafe3b4186f6b6457e060405160405180910390a35050565b828054620001f59062000487565b90600052602060002090601f01602090048101928262000219576000855562000265565b82601f106200023457805160ff191683800117855562000265565b8280016001018555821562000265579182015b828111156200026457825182559160200191906001019062000247565b5b50905062000274919062000278565b5090565b5b808211156200029357600081600090555060010162000279565b5090565b6000620002ae620002a884620003e7565b620003be565b905082815260208101848484011115620002c757600080fd5b620002d484828562000451565b509392505050565b600081519050620002ed8162000562565b92915050565b600082601f8301126200030557600080fd5b81516200031784826020860162000297565b91505092915050565b600080600080608085870312156200033757600080fd5b600085015167ffffffffffffffff8111156200035257600080fd5b6200036087828801620002f3565b945050602085015167ffffffffffffffff8111156200037e57600080fd5b6200038c87828801620002f3565b93505060406200039f87828801620002dc565b9250506060620003b287828801620002dc565b91505092959194509250565b6000620003ca620003dd565b9050620003d88282620004bd565b919050565b6000604051905090565b600067ffffffffffffffff82111562000405576200040462000522565b5b620004108262000551565b9050602081019050919050565b60006200042a8262000431565b9050919050565b600073ffffffffffffffffffffffffffffffffffffffff82169050919050565b60005b838110156200047157808201518184015260208101905062000454565b8381111562000481576000848401525b50505050565b60006002820490506001821680620004a057607f821691505b60208210811415620004b757620004b6620004f3565b5b50919050565b620004c88262000551565b810181811067ffffffffffffffff82111715620004ea57620004e962000522565b5b80604052505050565b7f4e487b7100000000000000000000000000000000000000000000000000000000600052602260045260246000fd5b7f4e487b7100000000000000000000000000000000000000000000000000000000600052604160045260246000fd5b6000601f19601f8301169050919050565b6200056d816200041d565b81146200057957600080fd5b50565b6131dd806200058c6000396000f3fe608060405234801561001057600080fd5b506004361061012c5760003560e01c8063715018a6116100ad578063c87b56dd11610071578063c87b56dd1461031b578063d0def5211461034b578063df727d3b1461037b578063e985e9c514610399578063f2fde38b146103c95761012c565b8063715018a61461029d5780638da5cb5b146102a757806395d89b41146102c5578063a22cb465146102e3578063b88d4fde146102ff5761012c565b806323b872dd116100f457806323b872dd146101e957806342842e0e1461020557806342966c68146102215780636352211e1461023d57806370a082311461026d5761012c565b806301ffc9a71461013157806306fdde0314610161578063081812fc1461017f578063095ea7b3146101af57806323a1d677146101cb575b600080fd5b61014b600480360381019061014691906124b5565b6103e5565b60405161015891906128bb565b60405180910390f35b610169610446565b60405161017691906128d6565b60405180910390f35b61019960048036038101906101949190612507565b6104d8565b6040516101a69190612854565b60405180910390f35b6101c960048036038101906101c49190612479565b61051e565b005b6101d3610636565b6040516101e09190612854565b60405180910390f35b61020360048036038101906101fe919061231f565b61065c565b005b61021f600480360381019061021a919061231f565b6106bc565b005b61023b60048036038101906102369190612507565b6106dc565b005b61025760048036038101906102529190612507565b61075e565b6040516102649190612854565b60405180910390f35b610287600480360381019061028291906122ba565b6107e5565b6040516102949190612af8565b60405180910390f35b6102a561089d565b005b6102af6108b1565b6040516102bc9190612854565b60405180910390f35b6102cd6108db565b6040516102da91906128d6565b60405180910390f35b6102fd60048036038101906102f891906123e9565b61096d565b005b6103196004803603810190610314919061236e565b610983565b005b61033560048036038101906103309190612507565b6109e5565b60405161034291906128d6565b60405180910390f35b61036560048036038101906103609190612425565b610af8565b6040516103729190612af8565b60405180910390f35b610383610bc0565b6040516103909190612854565b60405180910390f35b6103b360048036038101906103ae91906122e3565b610be6565b6040516103c091906128bb565b60405180910390f35b6103e360048036038101906103de91906122ba565b610c7a565b005b6000634906490660e01b7bffffffffffffffffffffffffffffffffffffffffffffffffffffffff1916827bffffffffffffffffffffffffffffffffffffffffffffffffffffffff1916148061043f575061043e82610cfe565b5b9050919050565b60606000805461045590612c93565b80601f016020809104026020016040519081016040528092919081815260200182805461048190612c93565b80156104ce5780601f106104a3576101008083540402835291602001916104ce565b820191906000526020600020905b8154815290600101906020018083116104b157829003601f168201915b5050505050905090565b60006104e382610de0565b6004600083815260200190815260200160002060009054906101000a900473ffffffffffffffffffffffffffffffffffffffff169050919050565b60006105298261075e565b90508073ffffffffffffffffffffffffffffffffffffffff168373ffffffffffffffffffffffffffffffffffffffff16141561059a576040517f08c379a000000000000000000000000000000000000000000000000000000000815260040161059190612ab8565b60405180910390fd5b8073ffffffffffffffffffffffffffffffffffffffff166105b9610e2b565b73ffffffffffffffffffffffffffffffffffffffff1614806105e857506105e7816105e2610e2b565b610be6565b5b610627576040517f08c379a000000000000000000000000000000000000000000000000000000000815260040161061e90612ad8565b60405180910390fd5b6106318383610e33565b505050565b600960009054906101000a900473ffffffffffffffffffffffffffffffffffffffff1681565b61066d610667610e2b565b82610eec565b6106ac576040517f08c379a00000000000000000000000000000000000000000000000000000000081526004016106a3906128f8565b60405180910390fd5b6106b7838383610f81565b505050565b6106d783838360405180602001604052806000815250610983565b505050565b3373ffffffffffffffffffffffffffffffffffffffff166106fc8261075e565b73ffffffffffffffffffffffffffffffffffffffff1614610752576040517f08c379a000000000000000000000000000000000000000000000000000000000815260040161074990612a18565b60405180910390fd5b61075b8161127b565b50565b60008061076a836112ce565b9050600073ffffffffffffffffffffffffffffffffffffffff168173ffffffffffffffffffffffffffffffffffffffff1614156107dc576040517f08c379a00000000000000000000000000000000000000000000000000000000081526004016107d390612a98565b60405180910390fd5b80915050919050565b60008073ffffffffffffffffffffffffffffffffffffffff168273ffffffffffffffffffffffffffffffffffffffff161415610856576040517f08c379a000000000000000000000000000000000000000000000000000000000815260040161084d906129f8565b60405180910390fd5b600360008373ffffffffffffffffffffffffffffffffffffffff1673ffffffffffffffffffffffffffffffffffffffff168152602001908152602001600020549050919050565b6108a561130b565b6108af6000611389565b565b6000600760009054906101000a900473ffffffffffffffffffffffffffffffffffffffff16905090565b6060600180546108ea90612c93565b80601f016020809104026020016040519081016040528092919081815260200182805461091690612c93565b80156109635780601f1061093857610100808354040283529160200191610963565b820191906000526020600020905b81548152906001019060200180831161094657829003601f168201915b5050505050905090565b61097f610978610e2b565b838361144f565b5050565b61099461098e610e2b565b83610eec565b6109d3576040517f08c379a00000000000000000000000000000000000000000000000000000000081526004016109ca906128f8565b60405180910390fd5b6109df848484846115bc565b50505050565b60606109f082610de0565b6000600660008481526020019081526020016000208054610a1090612c93565b80601f0160208091040260200160405190810160405280929190818152602001828054610a3c90612c93565b8015610a895780601f10610a5e57610100808354040283529160200191610a89565b820191906000526020600020905b815481529060010190602001808311610a6c57829003601f168201915b505050505090506000610a9a611618565b9050600081511415610ab0578192505050610af3565b600082511115610ae5578082604051602001610acd929190612830565b60405160208183030381529060405292505050610af3565b610aee8461162f565b925050505b919050565b6000600860009054906101000a900473ffffffffffffffffffffffffffffffffffffffff1673ffffffffffffffffffffffffffffffffffffffff163373ffffffffffffffffffffffffffffffffffffffff1614610b8a576040517f08c379a0000000000000000000000000000000000000000000000000000000008152600401610b81906129d8565b60405180910390fd5b610b94600a611697565b6000610ba0600a6116ad565b9050610bac84826116bb565b610bb681846118d9565b8091505092915050565b600860009054906101000a900473ffffffffffffffffffffffffffffffffffffffff1681565b6000600560008473ffffffffffffffffffffffffffffffffffffffff1673ffffffffffffffffffffffffffffffffffffffff16815260200190815260200160002060008373ffffffffffffffffffffffffffffffffffffffff1673ffffffffffffffffffffffffffffffffffffffff16815260200190815260200160002060009054906101000a900460ff16905092915050565b610c8261130b565b600073ffffffffffffffffffffffffffffffffffffffff168173ffffffffffffffffffffffffffffffffffffffff161415610cf2576040517f08c379a0000000000000000000000000000000000000000000000000000000008152600401610ce990612938565b60405180910390fd5b610cfb81611389565b50565b60007f80ac58cd000000000000000000000000000000000000000000000000000000007bffffffffffffffffffffffffffffffffffffffffffffffffffffffff1916827bffffffffffffffffffffffffffffffffffffffffffffffffffffffff19161480610dc957507f5b5e139f000000000000000000000000000000000000000000000000000000007bffffffffffffffffffffffffffffffffffffffffffffffffffffffff1916827bffffffffffffffffffffffffffffffffffffffffffffffffffffffff1916145b80610dd95750610dd882611984565b5b9050919050565b610de9816119ee565b610e28576040517f08c379a0000000000000000000000000000000000000000000000000000000008152600401610e1f90612a98565b60405180910390fd5b50565b600033905090565b816004600083815260200190815260200160002060006101000a81548173ffffffffffffffffffffffffffffffffffffffff021916908373ffffffffffffffffffffffffffffffffffffffff160217905550808273ffffffffffffffffffffffffffffffffffffffff16610ea68361075e565b73ffffffffffffffffffffffffffffffffffffffff167f8c5be1e5ebec7d5bd14f71427d1e84f3dd0314c0f7b2291e5b200ac8c7c3b92560405160405180910390a45050565b600080610ef88361075e565b90508073ffffffffffffffffffffffffffffffffffffffff168473ffffffffffffffffffffffffffffffffffffffff161480610f3a5750610f398185610be6565b5b80610f7857508373ffffffffffffffffffffffffffffffffffffffff16610f60846104d8565b73ffffffffffffffffffffffffffffffffffffffff16145b91505092915050565b8273ffffffffffffffffffffffffffffffffffffffff16610fa18261075e565b73ffffffffffffffffffffffffffffffffffffffff1614610ff7576040517f08c379a0000000000000000000000000000000000000000000000000000000008152600401610fee90612958565b60405180910390fd5b600073ffffffffffffffffffffffffffffffffffffffff168273ffffffffffffffffffffffffffffffffffffffff161415611067576040517f08c379a000000000000000000000000000000000000000000000000000000000815260040161105e90612998565b60405180910390fd5b6110748383836001611a2f565b8273ffffffffffffffffffffffffffffffffffffffff166110948261075e565b73ffffffffffffffffffffffffffffffffffffffff16146110ea576040517f08c379a00000000000000000000000000000000000000000000000000000000081526004016110e190612958565b60405180910390fd5b6004600082815260200190815260200160002060006101000a81549073ffffffffffffffffffffffffffffffffffffffff02191690556001600360008573ffffffffffffffffffffffffffffffffffffffff1673ffffffffffffffffffffffffffffffffffffffff168152602001908152602001600020600082825403925050819055506001600360008473ffffffffffffffffffffffffffffffffffffffff1673ffffffffffffffffffffffffffffffffffffffff16815260200190815260200160002060008282540192505081905550816002600083815260200190815260200160002060006101000a81548173ffffffffffffffffffffffffffffffffffffffff021916908373ffffffffffffffffffffffffffffffffffffffff160217905550808273ffffffffffffffffffffffffffffffffffffffff168473ffffffffffffffffffffffffffffffffffffffff167fddf252ad1be2c89b69c2b068fc378daa952ba7f163c4a11628f55a4df523b3ef60405160405180910390a46112768383836001611a35565b505050565b61128481611a3b565b60006006600083815260200190815260200160002080546112a490612c93565b9050146112cb576006600082815260200190815260200160002060006112ca919061209e565b5b50565b60006002600083815260200190815260200160002060009054906101000a900473ffffffffffffffffffffffffffffffffffffffff169050919050565b611313610e2b565b73ffffffffffffffffffffffffffffffffffffffff166113316108b1565b73ffffffffffffffffffffffffffffffffffffffff1614611387576040517f08c379a000000000000000000000000000000000000000000000000000000000815260040161137e90612a78565b60405180910390fd5b565b6000600760009054906101000a900473ffffffffffffffffffffffffffffffffffffffff16905081600760006101000a81548173ffffffffffffffffffffffffffffffffffffffff021916908373ffffffffffffffffffffffffffffffffffffffff1602179055508173ffffffffffffffffffffffffffffffffffffffff168173ffffffffffffffffffffffffffffffffffffffff167f8be0079c531659141344cd1fd0a4f28419497f9722a3daafe3b4186f6b6457e060405160405180910390a35050565b8173ffffffffffffffffffffffffffffffffffffffff168373ffffffffffffffffffffffffffffffffffffffff1614156114be576040517f08c379a00000000000000000000000000000000000000000000000000000000081526004016114b5906129b8565b60405180910390fd5b80600560008573ffffffffffffffffffffffffffffffffffffffff1673ffffffffffffffffffffffffffffffffffffffff16815260200190815260200160002060008473ffffffffffffffffffffffffffffffffffffffff1673ffffffffffffffffffffffffffffffffffffffff16815260200190815260200160002060006101000a81548160ff0219169083151502179055508173ffffffffffffffffffffffffffffffffffffffff168373ffffffffffffffffffffffffffffffffffffffff167f17307eab39ab6107e8899845ad3d59bd9653f200f220920489ca2b5937696c31836040516115af91906128bb565b60405180910390a3505050565b6115c7848484610f81565b6115d384848484611b89565b611612576040517f08c379a000000000000000000000000000000000000000000000000000000000815260040161160990612918565b60405180910390fd5b50505050565b606060405180602001604052806000815250905090565b606061163a82610de0565b6000611644611618565b90506000815111611664576040518060200160405280600081525061168f565b8061166e84611d20565b60405160200161167f929190612830565b6040516020818303038152906040525b915050919050565b6001816000016000828254019250508190555050565b600081600001549050919050565b600073ffffffffffffffffffffffffffffffffffffffff168273ffffffffffffffffffffffffffffffffffffffff16141561172b576040517f08c379a000000000000000000000000000000000000000000000000000000000815260040161172290612a58565b60405180910390fd5b611734816119ee565b15611774576040517f08c379a000000000000000000000000000000000000000000000000000000000815260040161176b90612978565b60405180910390fd5b611782600083836001611a2f565b61178b816119ee565b156117cb576040517f08c379a00000000000000000000000000000000000000000000000000000000081526004016117c290612978565b60405180910390fd5b6001600360008473ffffffffffffffffffffffffffffffffffffffff1673ffffffffffffffffffffffffffffffffffffffff16815260200190815260200160002060008282540192505081905550816002600083815260200190815260200160002060006101000a81548173ffffffffffffffffffffffffffffffffffffffff021916908373ffffffffffffffffffffffffffffffffffffffff160217905550808273ffffffffffffffffffffffffffffffffffffffff16600073ffffffffffffffffffffffffffffffffffffffff167fddf252ad1be2c89b69c2b068fc378daa952ba7f163c4a11628f55a4df523b3ef60405160405180910390a46118d5600083836001611a35565b5050565b6118e2826119ee565b611921576040517f08c379a000000000000000000000000000000000000000000000000000000000815260040161191890612a38565b60405180910390fd5b806006600084815260200190815260200160002090805190602001906119489291906120de565b507ff8e1a15aba9398e019f0b49df1a4fde98ee17ae345cb5f6b5e2c27f5033e8ce7826040516119789190612af8565b60405180910390a15050565b60007f01ffc9a7000000000000000000000000000000000000000000000000000000007bffffffffffffffffffffffffffffffffffffffffffffffffffffffff1916827bffffffffffffffffffffffffffffffffffffffffffffffffffffffff1916149050919050565b60008073ffffffffffffffffffffffffffffffffffffffff16611a10836112ce565b73ffffffffffffffffffffffffffffffffffffffff1614159050919050565b50505050565b50505050565b6000611a468261075e565b9050611a56816000846001611a2f565b611a5f8261075e565b90506004600083815260200190815260200160002060006101000a81549073ffffffffffffffffffffffffffffffffffffffff02191690556001600360008373ffffffffffffffffffffffffffffffffffffffff1673ffffffffffffffffffffffffffffffffffffffff168152602001908152602001600020600082825403925050819055506002600083815260200190815260200160002060006101000a81549073ffffffffffffffffffffffffffffffffffffffff021916905581600073ffffffffffffffffffffffffffffffffffffffff168273ffffffffffffffffffffffffffffffffffffffff167fddf252ad1be2c89b69c2b068fc378daa952ba7f163c4a11628f55a4df523b3ef60405160405180910390a4611b85816000846001611a35565b5050565b6000611baa8473ffffffffffffffffffffffffffffffffffffffff16611e44565b15611d13578373ffffffffffffffffffffffffffffffffffffffff1663150b7a02611bd3610e2b565b8786866040518563ffffffff1660e01b8152600401611bf5949392919061286f565b602060405180830381600087803b158015611c0f57600080fd5b505af1925050508015611c4057506040513d601f19601f82011682018060405250810190611c3d91906124de565b60015b611cc3573d8060008114611c70576040519150601f19603f3d011682016040523d82523d6000602084013e611c75565b606091505b50600081511415611cbb576040517f08c379a0000000000000000000000000000000000000000000000000000000008152600401611cb290612918565b60405180910390fd5b805181602001fd5b63150b7a0260e01b7bffffffffffffffffffffffffffffffffffffffffffffffffffffffff1916817bffffffffffffffffffffffffffffffffffffffffffffffffffffffff191614915050611d18565b600190505b949350505050565b606060006001611d2f84611e67565b01905060008167ffffffffffffffff811115611d74577f4e487b7100000000000000000000000000000000000000000000000000000000600052604160045260246000fd5b6040519080825280601f01601f191660200182016040528015611da65781602001600182028036833780820191505090505b509050600082602001820190505b600115611e39578080600190039150507f3031323334353637383961626364656600000000000000000000000000000000600a86061a8153600a8581611e23577f4e487b7100000000000000000000000000000000000000000000000000000000600052601260045260246000fd5b0494506000851415611e3457611e39565b611db4565b819350505050919050565b6000808273ffffffffffffffffffffffffffffffffffffffff163b119050919050565b600080600090507a184f03e93ff9f4daa797ed6e38ed64bf6a1f0100000000000000008310611eeb577a184f03e93ff9f4daa797ed6e38ed64bf6a1f0100000000000000008381611ee1577f4e487b7100000000000000000000000000000000000000000000000000000000600052601260045260246000fd5b0492506040810190505b6d04ee2d6d415b85acef81000000008310611f4e576d04ee2d6d415b85acef81000000008381611f44577f4e487b7100000000000000000000000000000000000000000000000000000000600052601260045260246000fd5b0492506020810190505b662386f26fc100008310611fa357662386f26fc100008381611f99577f4e487b7100000000000000000000000000000000000000000000000000000000600052601260045260246000fd5b0492506010810190505b6305f5e1008310611ff2576305f5e1008381611fe8577f4e487b7100000000000000000000000000000000000000000000000000000000600052601260045260246000fd5b0492506008810190505b612710831061203d576127108381612033577f4e487b7100000000000000000000000000000000000000000000000000000000600052601260045260246000fd5b0492506004810190505b60648310612086576064838161207c577f4e487b7100000000000000000000000000000000000000000000000000000000600052601260045260246000fd5b0492506002810190505b600a8310612095576001810190505b80915050919050565b5080546120aa90612c93565b6000825580601f106120bc57506120db565b601f0160209004906000526020600020908101906120da9190612164565b5b50565b8280546120ea90612c93565b90600052602060002090601f01602090048101928261210c5760008555612153565b82601f1061212557805160ff1916838001178555612153565b82800160010185558215612153579182015b82811115612152578251825591602001919060010190612137565b5b5090506121609190612164565b5090565b5b8082111561217d576000816000905550600101612165565b5090565b600061219461218f84612b38565b612b13565b9050828152602081018484840111156121ac57600080fd5b6121b7848285612c51565b509392505050565b60006121d26121cd84612b69565b612b13565b9050828152602081018484840111156121ea57600080fd5b6121f5848285612c51565b509392505050565b60008135905061220c8161314b565b92915050565b60008135905061222181613162565b92915050565b60008135905061223681613179565b92915050565b60008151905061224b81613179565b92915050565b600082601f83011261226257600080fd5b8135612272848260208601612181565b91505092915050565b600082601f83011261228c57600080fd5b813561229c8482602086016121bf565b91505092915050565b6000813590506122b481613190565b92915050565b6000602082840312156122cc57600080fd5b60006122da848285016121fd565b91505092915050565b600080604083850312156122f657600080fd5b6000612304858286016121fd565b9250506020612315858286016121fd565b9150509250929050565b60008060006060848603121561233457600080fd5b6000612342868287016121fd565b9350506020612353868287016121fd565b9250506040612364868287016122a5565b9150509250925092565b6000806000806080858703121561238457600080fd5b6000612392878288016121fd565b94505060206123a3878288016121fd565b93505060406123b4878288016122a5565b925050606085013567ffffffffffffffff8111156123d157600080fd5b6123dd87828801612251565b91505092959194509250565b600080604083850312156123fc57600080fd5b600061240a858286016121fd565b925050602061241b85828601612212565b9150509250929050565b6000806040838503121561243857600080fd5b6000612446858286016121fd565b925050602083013567ffffffffffffffff81111561246357600080fd5b61246f8582860161227b565b9150509250929050565b6000806040838503121561248c57600080fd5b600061249a858286016121fd565b92505060206124ab858286016122a5565b9150509250929050565b6000602082840312156124c757600080fd5b60006124d584828501612227565b91505092915050565b6000602082840312156124f057600080fd5b60006124fe8482850161223c565b91505092915050565b60006020828403121561251957600080fd5b6000612527848285016122a5565b91505092915050565b61253981612bdd565b82525050565b61254881612bef565b82525050565b600061255982612b9a565b6125638185612bb0565b9350612573818560208601612c60565b61257c81612d54565b840191505092915050565b600061259282612ba5565b61259c8185612bc1565b93506125ac818560208601612c60565b6125b581612d54565b840191505092915050565b60006125cb82612ba5565b6125d58185612bd2565b93506125e5818560208601612c60565b80840191505092915050565b60006125fe602d83612bc1565b915061260982612d65565b604082019050919050565b6000612621603283612bc1565b915061262c82612db4565b604082019050919050565b6000612644602683612bc1565b915061264f82612e03565b604082019050919050565b6000612667602583612bc1565b915061267282612e52565b604082019050919050565b600061268a601c83612bc1565b915061269582612ea1565b602082019050919050565b60006126ad602483612bc1565b91506126b882612eca565b604082019050919050565b60006126d0601983612bc1565b91506126db82612f19565b602082019050919050565b60006126f3600c83612bc1565b91506126fe82612f42565b602082019050919050565b6000612716602983612bc1565b915061272182612f6b565b604082019050919050565b6000612739601883612bc1565b915061274482612fba565b602082019050919050565b600061275c602e83612bc1565b915061276782612fe3565b604082019050919050565b600061277f602083612bc1565b915061278a82613032565b602082019050919050565b60006127a2602083612bc1565b91506127ad8261305b565b602082019050919050565b60006127c5601883612bc1565b91506127d082613084565b602082019050919050565b60006127e8602183612bc1565b91506127f3826130ad565b604082019050919050565b600061280b603d83612bc1565b9150612816826130fc565b604082019050919050565b61282a81612c47565b82525050565b600061283c82856125c0565b915061284882846125c0565b91508190509392505050565b60006020820190506128696000830184612530565b92915050565b60006080820190506128846000830187612530565b6128916020830186612530565b61289e6040830185612821565b81810360608301526128b0818461254e565b905095945050505050565b60006020820190506128d0600083018461253f565b92915050565b600060208201905081810360008301526128f08184612587565b905092915050565b60006020820190508181036000830152612911816125f1565b9050919050565b6000602082019050818103600083015261293181612614565b9050919050565b6000602082019050818103600083015261295181612637565b9050919050565b600060208201905081810360008301526129718161265a565b9050919050565b600060208201905081810360008301526129918161267d565b9050919050565b600060208201905081810360008301526129b1816126a0565b9050919050565b600060208201905081810360008301526129d1816126c3565b9050919050565b600060208201905081810360008301526129f1816126e6565b9050919050565b60006020820190508181036000830152612a1181612709565b9050919050565b60006020820190508181036000830152612a318161272c565b9050919050565b60006020820190508181036000830152612a518161274f565b9050919050565b60006020820190508181036000830152612a7181612772565b9050919050565b60006020820190508181036000830152612a9181612795565b9050919050565b60006020820190508181036000830152612ab1816127b8565b9050919050565b60006020820190508181036000830152612ad1816127db565b9050919050565b60006020820190508181036000830152612af1816127fe565b9050919050565b6000602082019050612b0d6000830184612821565b92915050565b6000612b1d612b2e565b9050612b298282612cc5565b919050565b6000604051905090565b600067ffffffffffffffff821115612b5357612b52612d25565b5b612b5c82612d54565b9050602081019050919050565b600067ffffffffffffffff821115612b8457612b83612d25565b5b612b8d82612d54565b9050602081019050919050565b600081519050919050565b600081519050919050565b600082825260208201905092915050565b600082825260208201905092915050565b600081905092915050565b6000612be882612c27565b9050919050565b60008115159050919050565b60007fffffffff0000000000000000000000000000000000000000000000000000000082169050919050565b600073ffffffffffffffffffffffffffffffffffffffff82169050919050565b6000819050919050565b82818337600083830152505050565b60005b83811015612c7e578082015181840152602081019050612c63565b83811115612c8d576000848401525b50505050565b60006002820490506001821680612cab57607f821691505b60208210811415612cbf57612cbe612cf6565b5b50919050565b612cce82612d54565b810181811067ffffffffffffffff82111715612ced57612cec612d25565b5b80604052505050565b7f4e487b7100000000000000000000000000000000000000000000000000000000600052602260045260246000fd5b7f4e487b7100000000000000000000000000000000000000000000000000000000600052604160045260246000fd5b6000601f19601f8301169050919050565b7f4552433732313a2063616c6c6572206973206e6f7420746f6b656e206f776e6560008201527f72206f7220617070726f76656400000000000000000000000000000000000000602082015250565b7f4552433732313a207472616e7366657220746f206e6f6e20455243373231526560008201527f63656976657220696d706c656d656e7465720000000000000000000000000000602082015250565b7f4f776e61626c653a206e6577206f776e657220697320746865207a65726f206160008201527f6464726573730000000000000000000000000000000000000000000000000000602082015250565b7f4552433732313a207472616e736665722066726f6d20696e636f72726563742060008201527f6f776e6572000000000000000000000000000000000000000000000000000000602082015250565b7f4552433732313a20746f6b656e20616c7265616479206d696e74656400000000600082015250565b7f4552433732313a207472616e7366657220746f20746865207a65726f2061646460008201527f7265737300000000000000000000000000000000000000000000000000000000602082015250565b7f4552433732313a20617070726f766520746f2063616c6c657200000000000000600082015250565b7f4e6f742061206f776e6572210000000000000000000000000000000000000000600082015250565b7f4552433732313a2061646472657373207a65726f206973206e6f74206120766160008201527f6c6964206f776e65720000000000000000000000000000000000000000000000602082015250565b7f43616c6c6572206973206e6f7420746865206f776e6572210000000000000000600082015250565b7f45524337323155524953746f726167653a2055524920736574206f66206e6f6e60008201527f6578697374656e7420746f6b656e000000000000000000000000000000000000602082015250565b7f4552433732313a206d696e7420746f20746865207a65726f2061646472657373600082015250565b7f4f776e61626c653a2063616c6c6572206973206e6f7420746865206f776e6572600082015250565b7f4552433732313a20696e76616c696420746f6b656e2049440000000000000000600082015250565b7f4552433732313a20617070726f76616c20746f2063757272656e74206f776e6560008201527f7200000000000000000000000000000000000000000000000000000000000000602082015250565b7f4552433732313a20617070726f76652063616c6c6572206973206e6f7420746f60008201527f6b656e206f776e6572206f7220617070726f76656420666f7220616c6c000000602082015250565b61315481612bdd565b811461315f57600080fd5b50565b61316b81612bef565b811461317657600080fd5b50565b61318281612bfb565b811461318d57600080fd5b50565b61319981612c47565b81146131a457600080fd5b5056fea2646970667358221220fd33131f12881b7796ac7daa0f42f084ede5218472c717057658615fa24bd3d364736f6c63430008040033",
  "linkReferences": {},
  "deployedLinkReferences": {}
}