{
  "_format": "hh-sol-artifact-1",
  "contractName": "ERC721Factory",
  "sourceName": "server/contracts/Mint721.sol",
  "abi": [
    {
      "inputs": [
        {
          "internalType": "address",
          "name": "_operator",
          "type": "address"
        }
      ],
      "stateMutability": "nonpayable",
      "type": "constructor"
    },
    {
      "anonymous": false,
      "inputs": [
        {
          "indexed": true,
          "internalType": "address",
          "name": "collectionAddress",
          "type": "address"
        },
        {
          "indexed": true,
          "internalType": "address",
          "name": "collector",
          "type": "address"
        }
      ],
      "name": "CollectionCreation",
      "type": "event"
    },
    {
      "anonymous": false,
      "inputs": [
        {
          "indexed": true,
          "internalType": "address",
          "name": "previousOwner",
          "type": "address"
        },
        {
          "indexed": true,
          "internalType": "address",
          "name": "newOwner",
          "type": "address"
        }
      ],
      "name": "OwnershipTransferred",
      "type": "event"
    },
    {
      "inputs": [
        {
          "internalType": "address",
          "name": "",
          "type": "address"
        }
      ],
      "name": "collectionRecords",
      "outputs": [
        {
          "internalType": "address",
          "name": "",
          "type": "address"
        }
      ],
      "stateMutability": "view",
      "type": "function"
    },
    {
      "inputs": [
        {
          "internalType": "address",
          "name": "collector",
          "type": "address"
        },
        {
          "internalType": "string",
          "name": "_name",
          "type": "string"
        },
        {
          "internalType": "string",
          "name": "_sybmol",
          "type": "string"
        }
      ],
      "name": "createCollection",
      "outputs": [
        {
          "internalType": "address",
          "name": "",
          "type": "address"
        }
      ],
      "stateMutability": "nonpayable",
      "type": "function"
    },
    {
      "inputs": [
        {
          "internalType": "address",
          "name": "collection",
          "type": "address"
        },
        {
          "internalType": "address",
          "name": "to",
          "type": "address"
        },
        {
          "internalType": "string",
          "name": "_uri",
          "type": "string"
        }
      ],
      "name": "mintUnderCollection",
      "outputs": [],
      "stateMutability": "nonpayable",
      "type": "function"
    },
    {
      "inputs": [],
      "name": "operator",
      "outputs": [
        {
          "internalType": "address",
          "name": "",
          "type": "address"
        }
      ],
      "stateMutability": "view",
      "type": "function"
    },
    {
      "inputs": [],
      "name": "owner",
      "outputs": [
        {
          "internalType": "address",
          "name": "",
          "type": "address"
        }
      ],
      "stateMutability": "view",
      "type": "function"
    },
    {
      "inputs": [],
      "name": "renounceOwnership",
      "outputs": [],
      "stateMutability": "nonpayable",
      "type": "function"
    },
    {
      "inputs": [
        {
          "internalType": "address",
          "name": "newOwner",
          "type": "address"
        }
      ],
      "name": "transferOwnership",
      "outputs": [],
      "stateMutability": "nonpayable",
      "type": "function"
    }
  ],
  "bytecode": "0x60806040523480156200001157600080fd5b506040516200481738038062004817833981810160405281019062000037919062000182565b620000576200004b6200009f60201b60201c565b620000a760201b60201c565b80600160006101000a81548173ffffffffffffffffffffffffffffffffffffffff021916908373ffffffffffffffffffffffffffffffffffffffff16021790555050620001fc565b600033905090565b60008060009054906101000a900473ffffffffffffffffffffffffffffffffffffffff169050816000806101000a81548173ffffffffffffffffffffffffffffffffffffffff021916908373ffffffffffffffffffffffffffffffffffffffff1602179055508173ffffffffffffffffffffffffffffffffffffffff168173ffffffffffffffffffffffffffffffffffffffff167f8be0079c531659141344cd1fd0a4f28419497f9722a3daafe3b4186f6b6457e060405160405180910390a35050565b6000815190506200017c81620001e2565b92915050565b6000602082840312156200019557600080fd5b6000620001a5848285016200016b565b91505092915050565b6000620001bb82620001c2565b9050919050565b600073ffffffffffffffffffffffffffffffffffffffff82169050919050565b620001ed81620001ae565b8114620001f957600080fd5b50565b61460b806200020c6000396000f3fe60806040523480156200001157600080fd5b5060043610620000885760003560e01c8063715018a61162000063578063715018a6146200011b5780638da5cb5b1462000127578063bafb04df1462000149578063f2fde38b14620001695762000088565b806335a9c596146200008d578063556067d614620000c3578063570ca73514620000f9575b600080fd5b620000ab6004803603810190620000a59190620008ab565b62000189565b604051620000ba919062000a4d565b60405180910390f35b620000e16004803603810190620000db919062000810565b62000323565b604051620000f0919062000a4d565b60405180910390f35b6200010362000356565b60405162000112919062000a4d565b60405180910390f35b620001256200037c565b005b6200013162000394565b60405162000140919062000a4d565b60405180910390f35b6200016760048036038101906200016191906200083c565b620003bd565b005b62000187600480360381019062000181919062000810565b62000586565b005b60008073ffffffffffffffffffffffffffffffffffffffff168473ffffffffffffffffffffffffffffffffffffffff161415620001fd576040517f08c379a0000000000000000000000000000000000000000000000000000000008152600401620001f49062000b5f565b60405180910390fd5b600083838630604051620002119062000762565b62000220949392919062000a9e565b604051809103906000f0801580156200023d573d6000803e3d6000fd5b50905080600260008773ffffffffffffffffffffffffffffffffffffffff1673ffffffffffffffffffffffffffffffffffffffff16815260200190815260200160002060006101000a81548173ffffffffffffffffffffffffffffffffffffffff021916908373ffffffffffffffffffffffffffffffffffffffff1602179055508473ffffffffffffffffffffffffffffffffffffffff168173ffffffffffffffffffffffffffffffffffffffff167fd919ce685f720d0843b30b622f14a8e03cc433a84651d1087d5250c6162fe2dc60405160405180910390a3809150509392505050565b60026020528060005260406000206000915054906101000a900473ffffffffffffffffffffffffffffffffffffffff1681565b600160009054906101000a900473ffffffffffffffffffffffffffffffffffffffff1681565b6200038662000611565b62000392600062000696565b565b60008060009054906101000a900473ffffffffffffffffffffffffffffffffffffffff16905090565b600160009054906101000a900473ffffffffffffffffffffffffffffffffffffffff1673ffffffffffffffffffffffffffffffffffffffff163373ffffffffffffffffffffffffffffffffffffffff161480620004a457508273ffffffffffffffffffffffffffffffffffffffff16600260003373ffffffffffffffffffffffffffffffffffffffff1673ffffffffffffffffffffffffffffffffffffffff16815260200190815260200160002060009054906101000a900473ffffffffffffffffffffffffffffffffffffffff1673ffffffffffffffffffffffffffffffffffffffff16145b1562000544578273ffffffffffffffffffffffffffffffffffffffff1663d0def52183836040518363ffffffff1660e01b8152600401620004e792919062000a6a565b602060405180830381600087803b1580156200050257600080fd5b505af115801562000517573d6000803e3d6000fd5b505050506040513d601f19601f820116820180604052508101906200053d919062000933565b5062000581565b6040517f08c379a0000000000000000000000000000000000000000000000000000000008152600401620005789062000b1b565b60405180910390fd5b505050565b6200059062000611565b600073ffffffffffffffffffffffffffffffffffffffff168173ffffffffffffffffffffffffffffffffffffffff16141562000603576040517f08c379a0000000000000000000000000000000000000000000000000000000008152600401620005fa9062000af9565b60405180910390fd5b6200060e8162000696565b50565b6200061b6200075a565b73ffffffffffffffffffffffffffffffffffffffff166200063b62000394565b73ffffffffffffffffffffffffffffffffffffffff161462000694576040517f08c379a00000000000000000000000000000000000000000000000000000000081526004016200068b9062000b3d565b60405180910390fd5b565b60008060009054906101000a900473ffffffffffffffffffffffffffffffffffffffff169050816000806101000a81548173ffffffffffffffffffffffffffffffffffffffff021916908373ffffffffffffffffffffffffffffffffffffffff1602179055508173ffffffffffffffffffffffffffffffffffffffff168173ffffffffffffffffffffffffffffffffffffffff167f8be0079c531659141344cd1fd0a4f28419497f9722a3daafe3b4186f6b6457e060405160405180910390a35050565b600033905090565b6137968062000e4083390190565b600062000787620007818462000baa565b62000b81565b905082815260208101848484011115620007a057600080fd5b620007ad84828562000c3a565b509392505050565b600081359050620007c68162000e0b565b92915050565b600082601f830112620007de57600080fd5b8135620007f084826020860162000770565b91505092915050565b6000815190506200080a8162000e25565b92915050565b6000602082840312156200082357600080fd5b60006200083384828501620007b5565b91505092915050565b6000806000606084860312156200085257600080fd5b60006200086286828701620007b5565b93505060206200087586828701620007b5565b925050604084013567ffffffffffffffff8111156200089357600080fd5b620008a186828701620007cc565b9150509250925092565b600080600060608486031215620008c157600080fd5b6000620008d186828701620007b5565b935050602084013567ffffffffffffffff811115620008ef57600080fd5b620008fd86828701620007cc565b925050604084013567ffffffffffffffff8111156200091b57600080fd5b6200092986828701620007cc565b9150509250925092565b6000602082840312156200094657600080fd5b60006200095684828501620007f9565b91505092915050565b6200096a8162000bfc565b82525050565b60006200097d8262000be0565b62000989818562000beb565b93506200099b81856020860162000c49565b620009a68162000ce4565b840191505092915050565b6000620009c060268362000beb565b9150620009cd8262000cf5565b604082019050919050565b6000620009e760288362000beb565b9150620009f48262000d44565b604082019050919050565b600062000a0e60208362000beb565b915062000a1b8262000d93565b602082019050919050565b600062000a3560258362000beb565b915062000a428262000dbc565b604082019050919050565b600060208201905062000a6460008301846200095f565b92915050565b600060408201905062000a8160008301856200095f565b818103602083015262000a95818462000970565b90509392505050565b6000608082019050818103600083015262000aba818762000970565b9050818103602083015262000ad0818662000970565b905062000ae160408301856200095f565b62000af060608301846200095f565b95945050505050565b6000602082019050818103600083015262000b1481620009b1565b9050919050565b6000602082019050818103600083015262000b3681620009d8565b9050919050565b6000602082019050818103600083015262000b5881620009ff565b9050919050565b6000602082019050818103600083015262000b7a8162000a26565b9050919050565b600062000b8d62000ba0565b905062000b9b828262000c7f565b919050565b6000604051905090565b600067ffffffffffffffff82111562000bc85762000bc762000cb5565b5b62000bd38262000ce4565b9050602081019050919050565b600081519050919050565b600082825260208201905092915050565b600062000c098262000c10565b9050919050565b600073ffffffffffffffffffffffffffffffffffffffff82169050919050565b6000819050919050565b82818337600083830152505050565b60005b8381101562000c6957808201518184015260208101905062000c4c565b8381111562000c79576000848401525b50505050565b62000c8a8262000ce4565b810181811067ffffffffffffffff8211171562000cac5762000cab62000cb5565b5b80604052505050565b7f4e487b7100000000000000000000000000000000000000000000000000000000600052604160045260246000fd5b6000601f19601f8301169050919050565b7f4f776e61626c653a206e6577206f776e657220697320746865207a65726f206160008201527f6464726573730000000000000000000000000000000000000000000000000000602082015250565b7f4e6f7420616c6c6f77656420746f206d696e7420756e6465722074686973206360008201527f6f6e747261637421000000000000000000000000000000000000000000000000602082015250565b7f4f776e61626c653a2063616c6c6572206973206e6f7420746865206f776e6572600082015250565b7f436f6c6c6563746f7220616464726573732073686f756c64206e6f742062652060008201527f7a65726f21000000000000000000000000000000000000000000000000000000602082015250565b62000e168162000bfc565b811462000e2257600080fd5b50565b62000e308162000c30565b811462000e3c57600080fd5b5056fe60806040523480156200001157600080fd5b506040516200379638038062003796833981810160405281019062000037919062000320565b8383816000908051906020019062000051929190620001e7565b5080600190805190602001906200006a929190620001e7565b5050506200008d620000816200011960201b60201c565b6200012160201b60201c565b81600860006101000a81548173ffffffffffffffffffffffffffffffffffffffff021916908373ffffffffffffffffffffffffffffffffffffffff16021790555080600960006101000a81548173ffffffffffffffffffffffffffffffffffffffff021916908373ffffffffffffffffffffffffffffffffffffffff160217905550505050506200057c565b600033905090565b6000600760009054906101000a900473ffffffffffffffffffffffffffffffffffffffff16905081600760006101000a81548173ffffffffffffffffffffffffffffffffffffffff021916908373ffffffffffffffffffffffffffffffffffffffff1602179055508173ffffffffffffffffffffffffffffffffffffffff168173ffffffffffffffffffffffffffffffffffffffff167f8be0079c531659141344cd1fd0a4f28419497f9722a3daafe3b4186f6b6457e060405160405180910390a35050565b828054620001f59062000487565b90600052602060002090601f01602090048101928262000219576000855562000265565b82601f106200023457805160ff191683800117855562000265565b8280016001018555821562000265579182015b828111156200026457825182559160200191906001019062000247565b5b50905062000274919062000278565b5090565b5b808211156200029357600081600090555060010162000279565b5090565b6000620002ae620002a884620003e7565b620003be565b905082815260208101848484011115620002c757600080fd5b620002d484828562000451565b509392505050565b600081519050620002ed8162000562565b92915050565b600082601f8301126200030557600080fd5b81516200031784826020860162000297565b91505092915050565b600080600080608085870312156200033757600080fd5b600085015167ffffffffffffffff8111156200035257600080fd5b6200036087828801620002f3565b945050602085015167ffffffffffffffff8111156200037e57600080fd5b6200038c87828801620002f3565b93505060406200039f87828801620002dc565b9250506060620003b287828801620002dc565b91505092959194509250565b6000620003ca620003dd565b9050620003d88282620004bd565b919050565b6000604051905090565b600067ffffffffffffffff82111562000405576200040462000522565b5b620004108262000551565b9050602081019050919050565b60006200042a8262000431565b9050919050565b600073ffffffffffffffffffffffffffffffffffffffff82169050919050565b60005b838110156200047157808201518184015260208101905062000454565b8381111562000481576000848401525b50505050565b60006002820490506001821680620004a057607f821691505b60208210811415620004b757620004b6620004f3565b5b50919050565b620004c88262000551565b810181811067ffffffffffffffff82111715620004ea57620004e962000522565b5b80604052505050565b7f4e487b7100000000000000000000000000000000000000000000000000000000600052602260045260246000fd5b7f4e487b7100000000000000000000000000000000000000000000000000000000600052604160045260246000fd5b6000601f19601f8301169050919050565b6200056d816200041d565b81146200057957600080fd5b50565b61320a806200058c6000396000f3fe608060405234801561001057600080fd5b506004361061012c5760003560e01c8063715018a6116100ad578063c87b56dd11610071578063c87b56dd1461031b578063d0def5211461034b578063df727d3b1461037b578063e985e9c514610399578063f2fde38b146103c95761012c565b8063715018a61461029d5780638da5cb5b146102a757806395d89b41146102c5578063a22cb465146102e3578063b88d4fde146102ff5761012c565b806323b872dd116100f457806323b872dd146101e957806342842e0e1461020557806342966c68146102215780636352211e1461023d57806370a082311461026d5761012c565b806301ffc9a71461013157806306fdde0314610161578063081812fc1461017f578063095ea7b3146101af57806323a1d677146101cb575b600080fd5b61014b600480360381019061014691906124e2565b6103e5565b60405161015891906128e8565b60405180910390f35b610169610446565b6040516101769190612903565b60405180910390f35b61019960048036038101906101949190612534565b6104d8565b6040516101a69190612881565b60405180910390f35b6101c960048036038101906101c491906124a6565b61051e565b005b6101d3610636565b6040516101e09190612881565b60405180910390f35b61020360048036038101906101fe919061234c565b61065c565b005b61021f600480360381019061021a919061234c565b6106bc565b005b61023b60048036038101906102369190612534565b6106dc565b005b61025760048036038101906102529190612534565b61075e565b6040516102649190612881565b60405180910390f35b610287600480360381019061028291906122e7565b6107e5565b6040516102949190612b25565b60405180910390f35b6102a561089d565b005b6102af6108b1565b6040516102bc9190612881565b60405180910390f35b6102cd6108db565b6040516102da9190612903565b60405180910390f35b6102fd60048036038101906102f89190612416565b61096d565b005b6103196004803603810190610314919061239b565b610983565b005b61033560048036038101906103309190612534565b6109e5565b6040516103429190612903565b60405180910390f35b61036560048036038101906103609190612452565b610af8565b6040516103729190612b25565b60405180910390f35b610383610bed565b6040516103909190612881565b60405180910390f35b6103b360048036038101906103ae9190612310565b610c13565b6040516103c091906128e8565b60405180910390f35b6103e360048036038101906103de91906122e7565b610ca7565b005b6000634906490660e01b7bffffffffffffffffffffffffffffffffffffffffffffffffffffffff1916827bffffffffffffffffffffffffffffffffffffffffffffffffffffffff1916148061043f575061043e82610d2b565b5b9050919050565b60606000805461045590612cc0565b80601f016020809104026020016040519081016040528092919081815260200182805461048190612cc0565b80156104ce5780601f106104a3576101008083540402835291602001916104ce565b820191906000526020600020905b8154815290600101906020018083116104b157829003601f168201915b5050505050905090565b60006104e382610e0d565b6004600083815260200190815260200160002060009054906101000a900473ffffffffffffffffffffffffffffffffffffffff169050919050565b60006105298261075e565b90508073ffffffffffffffffffffffffffffffffffffffff168373ffffffffffffffffffffffffffffffffffffffff16141561059a576040517f08c379a000000000000000000000000000000000000000000000000000000000815260040161059190612ae5565b60405180910390fd5b8073ffffffffffffffffffffffffffffffffffffffff166105b9610e58565b73ffffffffffffffffffffffffffffffffffffffff1614806105e857506105e7816105e2610e58565b610c13565b5b610627576040517f08c379a000000000000000000000000000000000000000000000000000000000815260040161061e90612b05565b60405180910390fd5b6106318383610e60565b505050565b600960009054906101000a900473ffffffffffffffffffffffffffffffffffffffff1681565b61066d610667610e58565b82610f19565b6106ac576040517f08c379a00000000000000000000000000000000000000000000000000000000081526004016106a390612925565b60405180910390fd5b6106b7838383610fae565b505050565b6106d783838360405180602001604052806000815250610983565b505050565b3373ffffffffffffffffffffffffffffffffffffffff166106fc8261075e565b73ffffffffffffffffffffffffffffffffffffffff1614610752576040517f08c379a000000000000000000000000000000000000000000000000000000000815260040161074990612a45565b60405180910390fd5b61075b816112a8565b50565b60008061076a836112fb565b9050600073ffffffffffffffffffffffffffffffffffffffff168173ffffffffffffffffffffffffffffffffffffffff1614156107dc576040517f08c379a00000000000000000000000000000000000000000000000000000000081526004016107d390612ac5565b60405180910390fd5b80915050919050565b60008073ffffffffffffffffffffffffffffffffffffffff168273ffffffffffffffffffffffffffffffffffffffff161415610856576040517f08c379a000000000000000000000000000000000000000000000000000000000815260040161084d90612a25565b60405180910390fd5b600360008373ffffffffffffffffffffffffffffffffffffffff1673ffffffffffffffffffffffffffffffffffffffff168152602001908152602001600020549050919050565b6108a5611338565b6108af60006113b6565b565b6000600760009054906101000a900473ffffffffffffffffffffffffffffffffffffffff16905090565b6060600180546108ea90612cc0565b80601f016020809104026020016040519081016040528092919081815260200182805461091690612cc0565b80156109635780601f1061093857610100808354040283529160200191610963565b820191906000526020600020905b81548152906001019060200180831161094657829003601f168201915b5050505050905090565b61097f610978610e58565b838361147c565b5050565b61099461098e610e58565b83610f19565b6109d3576040517f08c379a00000000000000000000000000000000000000000000000000000000081526004016109ca90612925565b60405180910390fd5b6109df848484846115e9565b50505050565b60606109f082610e0d565b6000600660008481526020019081526020016000208054610a1090612cc0565b80601f0160208091040260200160405190810160405280929190818152602001828054610a3c90612cc0565b8015610a895780601f10610a5e57610100808354040283529160200191610a89565b820191906000526020600020905b815481529060010190602001808311610a6c57829003601f168201915b505050505090506000610a9a611645565b9050600081511415610ab0578192505050610af3565b600082511115610ae5578082604051602001610acd92919061285d565b60405160208183030381529060405292505050610af3565b610aee8461165c565b925050505b919050565b6000600860009054906101000a900473ffffffffffffffffffffffffffffffffffffffff1673ffffffffffffffffffffffffffffffffffffffff163373ffffffffffffffffffffffffffffffffffffffff1614610b8a576040517f08c379a0000000000000000000000000000000000000000000000000000000008152600401610b8190612a05565b60405180910390fd5b610b94600a6116c4565b6000610ba0600a6116da565b9050610bac84826116e8565b610bb68184611906565b807f176b02bb2d12439ff7a20b59f402cca16c76f50508b13ef3166a600eb719354a60405160405180910390a28091505092915050565b600860009054906101000a900473ffffffffffffffffffffffffffffffffffffffff1681565b6000600560008473ffffffffffffffffffffffffffffffffffffffff1673ffffffffffffffffffffffffffffffffffffffff16815260200190815260200160002060008373ffffffffffffffffffffffffffffffffffffffff1673ffffffffffffffffffffffffffffffffffffffff16815260200190815260200160002060009054906101000a900460ff16905092915050565b610caf611338565b600073ffffffffffffffffffffffffffffffffffffffff168173ffffffffffffffffffffffffffffffffffffffff161415610d1f576040517f08c379a0000000000000000000000000000000000000000000000000000000008152600401610d1690612965565b60405180910390fd5b610d28816113b6565b50565b60007f80ac58cd000000000000000000000000000000000000000000000000000000007bffffffffffffffffffffffffffffffffffffffffffffffffffffffff1916827bffffffffffffffffffffffffffffffffffffffffffffffffffffffff19161480610df657507f5b5e139f000000000000000000000000000000000000000000000000000000007bffffffffffffffffffffffffffffffffffffffffffffffffffffffff1916827bffffffffffffffffffffffffffffffffffffffffffffffffffffffff1916145b80610e065750610e05826119b1565b5b9050919050565b610e1681611a1b565b610e55576040517f08c379a0000000000000000000000000000000000000000000000000000000008152600401610e4c90612ac5565b60405180910390fd5b50565b600033905090565b816004600083815260200190815260200160002060006101000a81548173ffffffffffffffffffffffffffffffffffffffff021916908373ffffffffffffffffffffffffffffffffffffffff160217905550808273ffffffffffffffffffffffffffffffffffffffff16610ed38361075e565b73ffffffffffffffffffffffffffffffffffffffff167f8c5be1e5ebec7d5bd14f71427d1e84f3dd0314c0f7b2291e5b200ac8c7c3b92560405160405180910390a45050565b600080610f258361075e565b90508073ffffffffffffffffffffffffffffffffffffffff168473ffffffffffffffffffffffffffffffffffffffff161480610f675750610f668185610c13565b5b80610fa557508373ffffffffffffffffffffffffffffffffffffffff16610f8d846104d8565b73ffffffffffffffffffffffffffffffffffffffff16145b91505092915050565b8273ffffffffffffffffffffffffffffffffffffffff16610fce8261075e565b73ffffffffffffffffffffffffffffffffffffffff1614611024576040517f08c379a000000000000000000000000000000000000000000000000000000000815260040161101b90612985565b60405180910390fd5b600073ffffffffffffffffffffffffffffffffffffffff168273ffffffffffffffffffffffffffffffffffffffff161415611094576040517f08c379a000000000000000000000000000000000000000000000000000000000815260040161108b906129c5565b60405180910390fd5b6110a18383836001611a5c565b8273ffffffffffffffffffffffffffffffffffffffff166110c18261075e565b73ffffffffffffffffffffffffffffffffffffffff1614611117576040517f08c379a000000000000000000000000000000000000000000000000000000000815260040161110e90612985565b60405180910390fd5b6004600082815260200190815260200160002060006101000a81549073ffffffffffffffffffffffffffffffffffffffff02191690556001600360008573ffffffffffffffffffffffffffffffffffffffff1673ffffffffffffffffffffffffffffffffffffffff168152602001908152602001600020600082825403925050819055506001600360008473ffffffffffffffffffffffffffffffffffffffff1673ffffffffffffffffffffffffffffffffffffffff16815260200190815260200160002060008282540192505081905550816002600083815260200190815260200160002060006101000a81548173ffffffffffffffffffffffffffffffffffffffff021916908373ffffffffffffffffffffffffffffffffffffffff160217905550808273ffffffffffffffffffffffffffffffffffffffff168473ffffffffffffffffffffffffffffffffffffffff167fddf252ad1be2c89b69c2b068fc378daa952ba7f163c4a11628f55a4df523b3ef60405160405180910390a46112a38383836001611a62565b505050565b6112b181611a68565b60006006600083815260200190815260200160002080546112d190612cc0565b9050146112f8576006600082815260200190815260200160002060006112f791906120cb565b5b50565b60006002600083815260200190815260200160002060009054906101000a900473ffffffffffffffffffffffffffffffffffffffff169050919050565b611340610e58565b73ffffffffffffffffffffffffffffffffffffffff1661135e6108b1565b73ffffffffffffffffffffffffffffffffffffffff16146113b4576040517f08c379a00000000000000000000000000000000000000000000000000000000081526004016113ab90612aa5565b60405180910390fd5b565b6000600760009054906101000a900473ffffffffffffffffffffffffffffffffffffffff16905081600760006101000a81548173ffffffffffffffffffffffffffffffffffffffff021916908373ffffffffffffffffffffffffffffffffffffffff1602179055508173ffffffffffffffffffffffffffffffffffffffff168173ffffffffffffffffffffffffffffffffffffffff167f8be0079c531659141344cd1fd0a4f28419497f9722a3daafe3b4186f6b6457e060405160405180910390a35050565b8173ffffffffffffffffffffffffffffffffffffffff168373ffffffffffffffffffffffffffffffffffffffff1614156114eb576040517f08c379a00000000000000000000000000000000000000000000000000000000081526004016114e2906129e5565b60405180910390fd5b80600560008573ffffffffffffffffffffffffffffffffffffffff1673ffffffffffffffffffffffffffffffffffffffff16815260200190815260200160002060008473ffffffffffffffffffffffffffffffffffffffff1673ffffffffffffffffffffffffffffffffffffffff16815260200190815260200160002060006101000a81548160ff0219169083151502179055508173ffffffffffffffffffffffffffffffffffffffff168373ffffffffffffffffffffffffffffffffffffffff167f17307eab39ab6107e8899845ad3d59bd9653f200f220920489ca2b5937696c31836040516115dc91906128e8565b60405180910390a3505050565b6115f4848484610fae565b61160084848484611bb6565b61163f576040517f08c379a000000000000000000000000000000000000000000000000000000000815260040161163690612945565b60405180910390fd5b50505050565b606060405180602001604052806000815250905090565b606061166782610e0d565b6000611671611645565b9050600081511161169157604051806020016040528060008152506116bc565b8061169b84611d4d565b6040516020016116ac92919061285d565b6040516020818303038152906040525b915050919050565b6001816000016000828254019250508190555050565b600081600001549050919050565b600073ffffffffffffffffffffffffffffffffffffffff168273ffffffffffffffffffffffffffffffffffffffff161415611758576040517f08c379a000000000000000000000000000000000000000000000000000000000815260040161174f90612a85565b60405180910390fd5b61176181611a1b565b156117a1576040517f08c379a0000000000000000000000000000000000000000000000000000000008152600401611798906129a5565b60405180910390fd5b6117af600083836001611a5c565b6117b881611a1b565b156117f8576040517f08c379a00000000000000000000000000000000000000000000000000000000081526004016117ef906129a5565b60405180910390fd5b6001600360008473ffffffffffffffffffffffffffffffffffffffff1673ffffffffffffffffffffffffffffffffffffffff16815260200190815260200160002060008282540192505081905550816002600083815260200190815260200160002060006101000a81548173ffffffffffffffffffffffffffffffffffffffff021916908373ffffffffffffffffffffffffffffffffffffffff160217905550808273ffffffffffffffffffffffffffffffffffffffff16600073ffffffffffffffffffffffffffffffffffffffff167fddf252ad1be2c89b69c2b068fc378daa952ba7f163c4a11628f55a4df523b3ef60405160405180910390a4611902600083836001611a62565b5050565b61190f82611a1b565b61194e576040517f08c379a000000000000000000000000000000000000000000000000000000000815260040161194590612a65565b60405180910390fd5b8060066000848152602001908152602001600020908051906020019061197592919061210b565b507ff8e1a15aba9398e019f0b49df1a4fde98ee17ae345cb5f6b5e2c27f5033e8ce7826040516119a59190612b25565b60405180910390a15050565b60007f01ffc9a7000000000000000000000000000000000000000000000000000000007bffffffffffffffffffffffffffffffffffffffffffffffffffffffff1916827bffffffffffffffffffffffffffffffffffffffffffffffffffffffff1916149050919050565b60008073ffffffffffffffffffffffffffffffffffffffff16611a3d836112fb565b73ffffffffffffffffffffffffffffffffffffffff1614159050919050565b50505050565b50505050565b6000611a738261075e565b9050611a83816000846001611a5c565b611a8c8261075e565b90506004600083815260200190815260200160002060006101000a81549073ffffffffffffffffffffffffffffffffffffffff02191690556001600360008373ffffffffffffffffffffffffffffffffffffffff1673ffffffffffffffffffffffffffffffffffffffff168152602001908152602001600020600082825403925050819055506002600083815260200190815260200160002060006101000a81549073ffffffffffffffffffffffffffffffffffffffff021916905581600073ffffffffffffffffffffffffffffffffffffffff168273ffffffffffffffffffffffffffffffffffffffff167fddf252ad1be2c89b69c2b068fc378daa952ba7f163c4a11628f55a4df523b3ef60405160405180910390a4611bb2816000846001611a62565b5050565b6000611bd78473ffffffffffffffffffffffffffffffffffffffff16611e71565b15611d40578373ffffffffffffffffffffffffffffffffffffffff1663150b7a02611c00610e58565b8786866040518563ffffffff1660e01b8152600401611c22949392919061289c565b602060405180830381600087803b158015611c3c57600080fd5b505af1925050508015611c6d57506040513d601f19601f82011682018060405250810190611c6a919061250b565b60015b611cf0573d8060008114611c9d576040519150601f19603f3d011682016040523d82523d6000602084013e611ca2565b606091505b50600081511415611ce8576040517f08c379a0000000000000000000000000000000000000000000000000000000008152600401611cdf90612945565b60405180910390fd5b805181602001fd5b63150b7a0260e01b7bffffffffffffffffffffffffffffffffffffffffffffffffffffffff1916817bffffffffffffffffffffffffffffffffffffffffffffffffffffffff191614915050611d45565b600190505b949350505050565b606060006001611d5c84611e94565b01905060008167ffffffffffffffff811115611da1577f4e487b7100000000000000000000000000000000000000000000000000000000600052604160045260246000fd5b6040519080825280601f01601f191660200182016040528015611dd35781602001600182028036833780820191505090505b509050600082602001820190505b600115611e66578080600190039150507f3031323334353637383961626364656600000000000000000000000000000000600a86061a8153600a8581611e50577f4e487b7100000000000000000000000000000000000000000000000000000000600052601260045260246000fd5b0494506000851415611e6157611e66565b611de1565b819350505050919050565b6000808273ffffffffffffffffffffffffffffffffffffffff163b119050919050565b600080600090507a184f03e93ff9f4daa797ed6e38ed64bf6a1f0100000000000000008310611f18577a184f03e93ff9f4daa797ed6e38ed64bf6a1f0100000000000000008381611f0e577f4e487b7100000000000000000000000000000000000000000000000000000000600052601260045260246000fd5b0492506040810190505b6d04ee2d6d415b85acef81000000008310611f7b576d04ee2d6d415b85acef81000000008381611f71577f4e487b7100000000000000000000000000000000000000000000000000000000600052601260045260246000fd5b0492506020810190505b662386f26fc100008310611fd057662386f26fc100008381611fc6577f4e487b7100000000000000000000000000000000000000000000000000000000600052601260045260246000fd5b0492506010810190505b6305f5e100831061201f576305f5e1008381612015577f4e487b7100000000000000000000000000000000000000000000000000000000600052601260045260246000fd5b0492506008810190505b612710831061206a576127108381612060577f4e487b7100000000000000000000000000000000000000000000000000000000600052601260045260246000fd5b0492506004810190505b606483106120b357606483816120a9577f4e487b7100000000000000000000000000000000000000000000000000000000600052601260045260246000fd5b0492506002810190505b600a83106120c2576001810190505b80915050919050565b5080546120d790612cc0565b6000825580601f106120e95750612108565b601f0160209004906000526020600020908101906121079190612191565b5b50565b82805461211790612cc0565b90600052602060002090601f0160209004810192826121395760008555612180565b82601f1061215257805160ff1916838001178555612180565b82800160010185558215612180579182015b8281111561217f578251825591602001919060010190612164565b5b50905061218d9190612191565b5090565b5b808211156121aa576000816000905550600101612192565b5090565b60006121c16121bc84612b65565b612b40565b9050828152602081018484840111156121d957600080fd5b6121e4848285612c7e565b509392505050565b60006121ff6121fa84612b96565b612b40565b90508281526020810184848401111561221757600080fd5b612222848285612c7e565b509392505050565b60008135905061223981613178565b92915050565b60008135905061224e8161318f565b92915050565b600081359050612263816131a6565b92915050565b600081519050612278816131a6565b92915050565b600082601f83011261228f57600080fd5b813561229f8482602086016121ae565b91505092915050565b600082601f8301126122b957600080fd5b81356122c98482602086016121ec565b91505092915050565b6000813590506122e1816131bd565b92915050565b6000602082840312156122f957600080fd5b60006123078482850161222a565b91505092915050565b6000806040838503121561232357600080fd5b60006123318582860161222a565b92505060206123428582860161222a565b9150509250929050565b60008060006060848603121561236157600080fd5b600061236f8682870161222a565b93505060206123808682870161222a565b9250506040612391868287016122d2565b9150509250925092565b600080600080608085870312156123b157600080fd5b60006123bf8782880161222a565b94505060206123d08782880161222a565b93505060406123e1878288016122d2565b925050606085013567ffffffffffffffff8111156123fe57600080fd5b61240a8782880161227e565b91505092959194509250565b6000806040838503121561242957600080fd5b60006124378582860161222a565b92505060206124488582860161223f565b9150509250929050565b6000806040838503121561246557600080fd5b60006124738582860161222a565b925050602083013567ffffffffffffffff81111561249057600080fd5b61249c858286016122a8565b9150509250929050565b600080604083850312156124b957600080fd5b60006124c78582860161222a565b92505060206124d8858286016122d2565b9150509250929050565b6000602082840312156124f457600080fd5b600061250284828501612254565b91505092915050565b60006020828403121561251d57600080fd5b600061252b84828501612269565b91505092915050565b60006020828403121561254657600080fd5b6000612554848285016122d2565b91505092915050565b61256681612c0a565b82525050565b61257581612c1c565b82525050565b600061258682612bc7565b6125908185612bdd565b93506125a0818560208601612c8d565b6125a981612d81565b840191505092915050565b60006125bf82612bd2565b6125c98185612bee565b93506125d9818560208601612c8d565b6125e281612d81565b840191505092915050565b60006125f882612bd2565b6126028185612bff565b9350612612818560208601612c8d565b80840191505092915050565b600061262b602d83612bee565b915061263682612d92565b604082019050919050565b600061264e603283612bee565b915061265982612de1565b604082019050919050565b6000612671602683612bee565b915061267c82612e30565b604082019050919050565b6000612694602583612bee565b915061269f82612e7f565b604082019050919050565b60006126b7601c83612bee565b91506126c282612ece565b602082019050919050565b60006126da602483612bee565b91506126e582612ef7565b604082019050919050565b60006126fd601983612bee565b915061270882612f46565b602082019050919050565b6000612720600c83612bee565b915061272b82612f6f565b602082019050919050565b6000612743602983612bee565b915061274e82612f98565b604082019050919050565b6000612766601883612bee565b915061277182612fe7565b602082019050919050565b6000612789602e83612bee565b915061279482613010565b604082019050919050565b60006127ac602083612bee565b91506127b78261305f565b602082019050919050565b60006127cf602083612bee565b91506127da82613088565b602082019050919050565b60006127f2601883612bee565b91506127fd826130b1565b602082019050919050565b6000612815602183612bee565b9150612820826130da565b604082019050919050565b6000612838603d83612bee565b915061284382613129565b604082019050919050565b61285781612c74565b82525050565b600061286982856125ed565b915061287582846125ed565b91508190509392505050565b6000602082019050612896600083018461255d565b92915050565b60006080820190506128b1600083018761255d565b6128be602083018661255d565b6128cb604083018561284e565b81810360608301526128dd818461257b565b905095945050505050565b60006020820190506128fd600083018461256c565b92915050565b6000602082019050818103600083015261291d81846125b4565b905092915050565b6000602082019050818103600083015261293e8161261e565b9050919050565b6000602082019050818103600083015261295e81612641565b9050919050565b6000602082019050818103600083015261297e81612664565b9050919050565b6000602082019050818103600083015261299e81612687565b9050919050565b600060208201905081810360008301526129be816126aa565b9050919050565b600060208201905081810360008301526129de816126cd565b9050919050565b600060208201905081810360008301526129fe816126f0565b9050919050565b60006020820190508181036000830152612a1e81612713565b9050919050565b60006020820190508181036000830152612a3e81612736565b9050919050565b60006020820190508181036000830152612a5e81612759565b9050919050565b60006020820190508181036000830152612a7e8161277c565b9050919050565b60006020820190508181036000830152612a9e8161279f565b9050919050565b60006020820190508181036000830152612abe816127c2565b9050919050565b60006020820190508181036000830152612ade816127e5565b9050919050565b60006020820190508181036000830152612afe81612808565b9050919050565b60006020820190508181036000830152612b1e8161282b565b9050919050565b6000602082019050612b3a600083018461284e565b92915050565b6000612b4a612b5b565b9050612b568282612cf2565b919050565b6000604051905090565b600067ffffffffffffffff821115612b8057612b7f612d52565b5b612b8982612d81565b9050602081019050919050565b600067ffffffffffffffff821115612bb157612bb0612d52565b5b612bba82612d81565b9050602081019050919050565b600081519050919050565b600081519050919050565b600082825260208201905092915050565b600082825260208201905092915050565b600081905092915050565b6000612c1582612c54565b9050919050565b60008115159050919050565b60007fffffffff0000000000000000000000000000000000000000000000000000000082169050919050565b600073ffffffffffffffffffffffffffffffffffffffff82169050919050565b6000819050919050565b82818337600083830152505050565b60005b83811015612cab578082015181840152602081019050612c90565b83811115612cba576000848401525b50505050565b60006002820490506001821680612cd857607f821691505b60208210811415612cec57612ceb612d23565b5b50919050565b612cfb82612d81565b810181811067ffffffffffffffff82111715612d1a57612d19612d52565b5b80604052505050565b7f4e487b7100000000000000000000000000000000000000000000000000000000600052602260045260246000fd5b7f4e487b7100000000000000000000000000000000000000000000000000000000600052604160045260246000fd5b6000601f19601f8301169050919050565b7f4552433732313a2063616c6c6572206973206e6f7420746f6b656e206f776e6560008201527f72206f7220617070726f76656400000000000000000000000000000000000000602082015250565b7f4552433732313a207472616e7366657220746f206e6f6e20455243373231526560008201527f63656976657220696d706c656d656e7465720000000000000000000000000000602082015250565b7f4f776e61626c653a206e6577206f776e657220697320746865207a65726f206160008201527f6464726573730000000000000000000000000000000000000000000000000000602082015250565b7f4552433732313a207472616e736665722066726f6d20696e636f72726563742060008201527f6f776e6572000000000000000000000000000000000000000000000000000000602082015250565b7f4552433732313a20746f6b656e20616c7265616479206d696e74656400000000600082015250565b7f4552433732313a207472616e7366657220746f20746865207a65726f2061646460008201527f7265737300000000000000000000000000000000000000000000000000000000602082015250565b7f4552433732313a20617070726f766520746f2063616c6c657200000000000000600082015250565b7f4e6f742061206f776e6572210000000000000000000000000000000000000000600082015250565b7f4552433732313a2061646472657373207a65726f206973206e6f74206120766160008201527f6c6964206f776e65720000000000000000000000000000000000000000000000602082015250565b7f43616c6c6572206973206e6f7420746865206f776e6572210000000000000000600082015250565b7f45524337323155524953746f726167653a2055524920736574206f66206e6f6e60008201527f6578697374656e7420746f6b656e000000000000000000000000000000000000602082015250565b7f4552433732313a206d696e7420746f20746865207a65726f2061646472657373600082015250565b7f4f776e61626c653a2063616c6c6572206973206e6f7420746865206f776e6572600082015250565b7f4552433732313a20696e76616c696420746f6b656e2049440000000000000000600082015250565b7f4552433732313a20617070726f76616c20746f2063757272656e74206f776e6560008201527f7200000000000000000000000000000000000000000000000000000000000000602082015250565b7f4552433732313a20617070726f76652063616c6c6572206973206e6f7420746f60008201527f6b656e206f776e6572206f7220617070726f76656420666f7220616c6c000000602082015250565b61318181612c0a565b811461318c57600080fd5b50565b61319881612c1c565b81146131a357600080fd5b50565b6131af81612c28565b81146131ba57600080fd5b50565b6131c681612c74565b81146131d157600080fd5b5056fea264697066735822122068a676d83924081098800fc434610ce0fadb838e5114f9d3077504da938a213564736f6c63430008040033a2646970667358221220e9b6182d695dfc7b9b8b7f11338c5378b8a0d4aad6d635183c7b78a58b3520df64736f6c63430008040033",
  "linkReferences": {},
  "deployedLinkReferences": {}
}